:1000000090C00000ACC00000AAC00000A8C0000062
:10001000A6C00000A4C00000A2C00000A0C0000054
:100020009EC000009CC000009AC0000098C0000064
:1000300096C0000094C0000092C0000090C0000074
:100040008EC000008CC000008AC0000088C0000084
:1000500086C0000084C0000082C0000080C0000094
:100060007EC000007CC000007AC0000078C00000A4
:1000700076C0000074C0000072C0000070C00000B4
:100080006EC000006CC000006AC000007707B007B7
:10009000E90722085B089408CD0806093F0978099A
:1000A00007634236B79BD8A71A39685618AEBAAB61
:1000B000558C1D3CB7CC5763BD6DEDFD753EF617F5
:1000C0007231BF000000803F08000000BE9224494A
:1000D000123EABAAAA2ABECDCCCC4C3E000000807A
:1000E000BEABAAAAAA3E00000000BF000000803FED
:1000F0000000000000084178D3BB4387D1133D19AD
:100100000E3CC3BD4282AD2B3E68EC8276BED98FD9
:10011000E1A93E4C80EFFFBE01C4FF7F3F0000001D
:10012000000011241FBECFEFD0E4DEBFCDBF16E02C
:10013000A0E0B1E0EAE7F1E200E00BBF02C0079007
:100140000D92AA3BB107D9F728E0AAEBB6E001C0AF
:100150001D92AB31B207E1F752D10C94BB1050CFD6
:10016000CF93DF93CDB7DEB785E290E02FE3FC01BC
:10017000208381D05ED04CD08FD028D005D0AED097
:100180000000DF91CF910895CF93DF93CDB7DEB715
:100190008BE290E02BE230E0F90120812160FC014C
:1001A00020830000DF91CF910895CF93DF93CDB7E7
:1001B000DEB78BE290E02BE230E0F90120812E7F68
:1001C000FC0120830000DF91CF910895CF93DF934E
:1001D000CDB7DEB78BE290E02BE230E0F901208171
:1001E0002260FC0120830000DF91CF910895CF931E
:1001F000DF93CDB7DEB78BE290E02BE230E0F90180
:1002000020812D7FFC0120830000DF91CF91089594
:10021000CF93DF93CDB7DEB78BE290E02BE230E0F7
:10022000F90120812460FC0120830000DF91CF913F
:100230000895CF93DF93CDB7DEB78BE290E02BE24A
:1002400030E0F9012081277FFC0120830000DF914D
:10025000CF910895CF93DF93CDB7DEB78BE290E0D7
:100260002BE230E0F90120812061FC0120830000B5
:10027000DF91CF910895CF93DF93CDB7DEB78BE2B7
:1002800090E02BE230E0F90120812F7EFC012083F9
:100290000000DF91CF910895CF93DF93CDB7DEB704
:1002A0008BE290E02BE230E0F90120812062FC013A
:1002B00020830000DF91CF910895CF93DF93CDB7D6
:1002C000DEB78BE290E02BE230E0F90120812F7D58
:1002D000FC0120830000DF91CF910895CF93DF933D
:1002E000CDB7DEB7EADFD8DF0000DF91CF91089508
:1002F000CF93DF93CDB7DEB77ADF46DF0000DF9123
:10030000CF910895CF93DF93CDB7DEB75FDF4DDF99
:100310000000DF91CF910895CF93DF931F92CDB767
:10032000DEB7898397DF85DF85E290E02981FC01D4
:100330002083D4DF00000F90DF91CF910895CF93F9
:10034000DF9300D000D0CDB7DEB71A8219821FC06C
:100350001C821B8212C089819A8125D08B819C814D
:1003600038D078DF66DF85E290E0FC011082B6DFEE
:100370008B819C8101969C838B838B819C818034B3
:1003800091054CF389819A8101969A8389838981A9
:100390009A810897ECF200000F900F900F900F9049
:1003A000DF91CF910895CF93DF9300D0CDB7DEB723
:1003B0009A83898360DF3DDF85E290E02981286BA5
:1003C000FC0120838BDF00000F900F90DF91CF9115
:1003D0000895CF93DF9300D0CDB7DEB79A8389839A
:1003E00028DF49DF85E290E029812064FC01208339
:1003F00075DF00000F900F90DF91CF910895CF939C
:10040000DF93CDB7DEB76E970FB6F894DEBF0FBEA1
:10041000CDBFECD7A5DE93DF75DF2AD1BED14DD499
:10042000C4D480911207882309F0AEC01A821982C1
:1004300086C080E090E0A0E8BFE38F839887A9871B
:10044000BA8720E030E04AEF54E46F8178858985EF
:100450009A850E94650DDC01CB018B879C87AD8757
:10046000BE8720E030E040E85FE36B857C858D85CA
:100470009E850E94120C88232CF481E090E0988BDA
:100480008F873FC020E03FEF4FE757E46B857C85C7
:100490008D859E850E94610D18164CF520E030E098
:1004A00040E251E46F81788589859A850E94650DC7
:1004B000DC01CB01BC01CD010E94830CDC01CB012E
:1004C000988B8F870FC088EC90E09A8B898B8989F5
:1004D0009A890197F1F79A8B898B8F859889019773
:1004E000988B8F878F859889892B69F714C06B85C6
:1004F0007C858D859E850E94830CDC01CB01988BC9
:100500008F878F8598899C8B8B8B8B899C89019792
:10051000F1F79C8B8B8B61E070E080E090E0B4D1D0
:100520009091140780911507981721F08091140776
:100530008093160789819A8101969A83898389819C
:100540009A8105970CF475CF80911407882F90E05D
:10055000029683709078992324F401978C6F9F6F93
:1005600001969C0180911507882F90E02817390784
:1005700021F48091150780931407809114078093CC
:100580001507ECD12DD34DCF80E090E0A8ECB2E47C
:100590008B839C83AD83BE8320E030E04AEF54E43C
:1005A0006B817C818D819E810E94650DDC01CB0178
:1005B0008D8B9E8BAF8BB88F20E030E040E85FE3FF
:1005C0006D897E898F89988D0E94120C88232CF466
:1005D00081E090E09A8F898F3FC020E03FEF4FE7A6
:1005E00057E46D897E898F89988D0E94610D181658
:1005F0004CF520E030E040E251E46B817C818D815C
:100600009E810E94650DDC01CB01BC01CD010E94E1
:10061000830CDC01CB019A8F898F0FC088EC90E0AE
:100620009C8F8B8F8B8D9C8D0197F1F79C8F8B8F7F
:10063000898D9A8D01979A8F898F898D9A8D892BB3
:1006400069F714C06D897E898F89988D0E94830C0B
:10065000DC01CB019A8F898F898D9A8D9E8F8D8F2A
:100660008D8D9E8D0197F1F79E8F8D8FB9D2D9CE4A
:10067000CF93DF9300D0CDB7DEB71A82198226C0A0
:100680008091AD06282F30E089819A81281B390B93
:100690008091AE06882F90E04091AF065091B00651
:1006A000542F4981652F641B462F22953295307F48
:1006B0003227207F3227820F931F875E984FFC01DD
:1006C000408389819A8101969A83898389819A815D
:1006D0000397B4F200000F900F90DF91CF9108952F
:1006E000CF93DF9300D000D0CDB7DEB71A82198246
:1006F00035C01C821B8229C089819A819C01229568
:100700003295307F3227207F32278B819C81820F68
:10071000931F875E984FFC01808141E0480F8981DB
:100720009A819C0122953295307F3227207F322793
:100730008B819C81820F931F875E984FFC014083C1
:100740008B819C8101969C838B838B819C814097BC
:100750009CF289819A8101969A83898389819A8101
:1007600040973CF28091AF069091B006019690932D
:10077000B0068093AF0680911707909118070196F5
:10078000909318078093170710D300000F900F90D5
:100790000F900F90DF91CF910895CF93DF9300D00A
:1007A000CDB7DEB70E940A10DC01CB018F7099270C
:1007B000AA27B078BB2354F40197A109B109806F2F
:1007C0009F6FAF6FBF6F0196A11DB11D89830E94FE
:1007D0000A10DC01CB018F709927AA27B078BB23C0
:1007E00054F40197A109B109806F9F6FAF6FBF6F7C
:1007F0000196A11DB11D8A838981282F30E08A814D
:10080000882F90E022953295307F3227207F322743
:10081000820F931F875E984F21EFFC012083000019
:100820000F900F90DF91CF910895CF93DF931F9298
:10083000CDB7DEB789838CE790E02CE730E0F90193
:100840002081322F387F2981232BFC0120838AE7E6
:1008500090E02AE730E0F90120812064FC01208348
:1008600000008AE790E0FC018081882F90E080748E
:100870009927892BB1F788E790E0FC01808191816D
:100880000F90DF91CF910895CF93DF93CDB7DEB76F
:1008900028970FB6F894DEBF0FBECDBF9E838D8321
:1008A00078876F838D81C1DF9A8389838F81BDDFD4
:1008B0009C838B832091B3063091B4068091B70658
:1008C0009091B806280F391F89819A812817390716
:1008D00024F483E08093140737C02091B30630914D
:1008E000B4068091B7069091B806281B390B8B810E
:1008F0009C81821793071CF41092140725C0209145
:10090000B1063091B2068091B5069091B606281BCB
:10091000390B89819A818217930724F481E08093AF
:10092000140712C02091B1063091B2068091B5062D
:100930009091B606280F391F8B819C8128173907A3
:100940001CF482E080931407000028960FB6F894F8
:10095000DEBF0FBECDBFDF91CF910895CF93DF9360
:1009600000D000D0CDB7DEB780911407882F90E07B
:100970008130910591F0823091051CF4892B39F07A
:100980001EC08230910579F0039799F018C081E07C
:100990008093AC061092130718C01092AC0681E049
:1009A0008093130712C08FEF8093AC061092130749
:1009B0000CC01092AC068FEF8093130706C081E045
:1009C0008093AC061092130700008091AD068093CF
:1009D0001A088091AE06809319089091AD06809117
:1009E000AC06890F8093AD069091AE0680911307F7
:1009F000890F8093AE068091AD06803120F48091FE
:100A0000AE06803108F0C3D68091AD06282F30E0C5
:100A10008091AE06882F90E022953295307F322764
:100A2000207F3227820F931F875E984FFC018081C1
:100A30008823F1F08091AD06282F30E08091AE063A
:100A4000882F90E022953295307F3227207F322701
:100A5000820F931F875E984FFC018081282F30E022
:100A60008091AF069091B006821793070CF08FD655
:100A70008091AD06282F30E08091AE06882F90E05F
:100A800022953295307F3227207F3227820F931FA5
:100A9000875E984FFC018081813F11F421DE7DDE6D
:100AA00080911207882309F093C01A8219828BC0A3
:100AB0001C821B827EC089819A819C01229532957D
:100AC000307F3227207F32278B819C81820F931FBA
:100AD000875E984FFC0180818823B9F189819A81D2
:100AE0009C0122953295307F3227207F32278B81DF
:100AF0009C81820F931F875E984FFC018081813F0C
:100B000020F589819A819C0122953295307F322788
:100B1000207F32278B819C81820F931F875E984FA5
:100B2000FC0180814FEF480F89819A819C012295B9
:100B30003295307F3227207F32278B819C81820F34
:100B4000931F875E984FFC01408380911A08282FDD
:100B500030E080911908882F90E04091AF065091C5
:100B6000B00622953295307F3227207F3227820FC0
:100B7000931F875E984FFC0140838091AD06282F1C
:100B800030E08091AE06882F90E0409114074650E7
:100B900022953295307F3227207F3227820F931F94
:100BA000875E984FFC0140838B819C8101969C83DA
:100BB0008B838B819C8140970CF47DCF89819A81B6
:100BC00001969A83898389819A8140970CF470CF2A
:100BD00000000F900F900F900F90DF91CF9108952C
:100BE000CF93DF9300D000D01F92CDB7DEB780DB6C
:100BF000198256C08981882F90E0D5DB80E090E093
:100C0000E8DB1A8246C01B823DC08981882F90E0B4
:100C10009C01220F331F8A81882F90E02295329504
:100C2000307F3227207F3227820F931F875E984FB5
:100C3000FC0180816B8152D48C838981882F90E064
:100C4000880F991F9C012F5F3F4F8A81882F90E06A
:100C500022953295307F3227207F3227820F931FD3
:100C6000875E984FFC0180816B8138D48295807FAC
:100C70008D839C818D81890F8C838C814DDB8B8151
:100C80008F5F8B838B81843008F4BFCF8A818F5F25
:100C90008A838A81803108F4B6CF89818F5F898306
:100CA0008981883008F4A6CF00000F900F900F9034
:100CB0000F900F90DF91CF910895CF93DF9300D0E5
:100CC00000D000D0CDB7DEB71DDB19824FC08981BF
:100CD000882F90E068DB84E190E07BDB88E090E0A7
:100CE0009B838A833BC01C821D822EC08981882FF2
:100CF00090E09C01220F331F220F331F220F331F5E
:100D00008D81882F90E0820F931F4A815B8168E27A
:100D1000649F9001659F300D1124820F931F8C58A2
:100D20009D4FFC018081882F90E02D81222F30E0A3
:100D300002C0880F991F2A95E2F7982F8C81890F9E
:100D40008C838D818F5F8D838D81883078F28C814B
:100D5000E3DA8A819B8101979B838A838A819B81C5
:100D600099230CF0C0CF89818F5F89838981853079
:100D700008F4ADCF1E820CC08E81882F90E013DB6B
:100D800080E090E026DB8FEFC7DA8E818F5F8E8365
:100D90008E81883088F3000026960FB6F894DEBF67
:100DA0000FBECDBFDF91CF910895CF92DF92EF922A
:100DB000FF92CF93DF9300D000D000D0CDB7DEB745
:100DC000A1DA80911707909118079C838B8386E0A6
:100DD00090E09A83898356C089819A81E4DA87E01A
:100DE00090E0F7DA89819A81069721F089819A81CA
:100DF000059719F480E059D040C080911707909171
:100E00001807092E000CAA0BBB0BBC01CD01A9D5FC
:100E10006B017C0124E030E089819A81A901481BA3
:100E2000590BCA01092E000CAA0BBB0BBC01CD014A
:100E300098D5DC01CB019C01AD0160E070E080E25F
:100E400091E4A6D6DC01CB019C01AD01C701B6013E
:100E5000EDD4DC01CB01BC01CD0150D5DC01CB01CF
:100E60009E838D838D819E812AE030E0B9010E94AE
:100E7000920F9E838D838D8118D089819A810197ED
:100E80009A83898389819A8199230CF0A5CF0000E8
:100E900026960FB6F894DEBF0FBECDBFDF91CF917F
:100EA000FF90EF90DF90CF900895CF93DF93CDB771
:100EB000DEB7A3970FB6F894DEBF0FBECDBF8BA3EE
:100EC00019828BA1882F90E0092E000CAA0BBB0B76
:100ED00040E050E029E030E0841B950B28173907EB
:100EE00008F440C28A5B9F4FFC010C94A50F88E078
:100EF00090E09B838A832FC019821C8222C08C8140
:100F0000882F90E02A813B81220F331F220F331F4D
:100F1000220F331F820F931F84529C4FFC0180814C
:100F2000882F90E02C81222F30E002C0880F991F7B
:100F30002A95E2F7982F8981890F89838C818F5FA9
:100F40008C838C818830D8F28981E6D98A819B8113
:100F500001979B838A838A819B8199236CF63CC28B
:100F600088E090E09E838D832FC019821F8222C06B
:100F70008F81882F90E02D813E81220F331F220F19
:100F8000331F220F331F820F931F8C5D9B4FFC0179
:100F90008081882F90E02F81222F30E002C0880FBF
:100FA000991F2A95E2F7982F8981890F89838F816C
:100FB0008F5F8F838F818830D8F28981ADD98D8101
:100FC0009E8101979E838D838D819E8199236CF6EE
:100FD00003C288E090E0998788872FC019821A861B
:100FE00022C08A85882F90E028853985220F331FFB
:100FF000220F331F220F331F820F931F84599B4FE1
:10100000FC018081882F90E02A85222F30E002C0E9
:10101000880F991F2A95E2F7982F8981890F898374
:101020008A858F5F8A878A858830D8F2898174D9CA
:1010300088859985019799878887888599859923D7
:101040006CF6CAC188E090E09C878B872FC019821C
:101050001D8622C08D85882F90E02B853C85220F30
:10106000331F220F331F220F331F820F931F8C5405
:101070009B4FFC018081882F90E02D85222F30E04E
:1010800002C0880F991F2A95E2F7982F8981890F4E
:1010900089838D858F5F8D878D858830D8F2898192
:1010A0003BD98B859C8501979C878B878B859C85FD
:1010B00099236CF691C188E090E09F878E872FC0BE
:1010C0001982188A22C08889882F90E02E853F8552
:1010D000220F331F220F331F220F331F820F931F44
:1010E00084509B4FFC018081882F90E02889222F1B
:1010F00030E002C0880F991F2A95E2F7982F898166
:10110000890F898388898F5F888B88898830D8F296
:10111000898102D98E859F8501979F878E878E85CD
:101120009F8599236CF658C188E090E09A8B898B53
:101130002FC019821B8A22C08B89882F90E02989B1
:101140003A89220F331F220F331F220F331F820FC2
:10115000931F8C5B9A4FFC018081882F90E02B8934
:10116000222F30E002C0880F991F2A95E2F7982FAE
:101170008981890F89838B898F5F8B8B8B898830DD
:10118000D8F28981C9D889899A8901979A8B898BE4
:1011900089899A8999236CF61FC188E090E09D8B1C
:1011A0008C8B2FC019821E8A22C08E89882F90E0D6
:1011B0002C893D89220F331F220F331F220F331F2B
:1011C000820F931F84579A4FFC018081882F90E0F3
:1011D0002E89222F30E002C0880F991F2A95E2F74E
:1011E000982F8981890F89838E898F5F8E8B8E8955
:1011F0008830D8F2898190D88C899D8901979D8B00
:101200008C8B8C899D8999236CF6E6C088E090E0F0
:10121000988F8F8B2FC01982198E22C0898D882FAD
:1012200090E02F89388D220F331F220F331F220F9A
:10123000331F820F931F8C529A4FFC018081882F9D
:1012400090E0298D222F30E002C0880F991F2A9547
:10125000E2F7982F8981890F8983898D8F5F898F24
:10126000898D8830D8F2898157D88F89988D0197D8
:10127000988F8F8B8F89988D99236CF6ADC088E0FD
:1012800090E09B8F8A8F2FC019821C8E22C08C8D7C
:10129000882F90E02A8D3B8D220F331F220F331FA2
:1012A000220F331F820F931F845E994FFC018081B0
:1012B000882F90E02C8D222F30E002C0880F991FDC
:1012C0002A95E2F7982F8981890F89838C8D8F5F0A
:1012D0008C8F8C8D8830D8F289811ED88A8D9B8D19
:1012E00001979B8F8A8F8A8D9B8D99236CF674C092
:1012F00088E090E09E8F8D8F30C019821F8E22C0B3
:101300008F8D882F90E02D8D3E8D220F331F220F61
:10131000331F220F331F820F931F8C59994FFC01EB
:101320008081882F90E02F8D222F30E002C0880F1F
:10133000991F2A95E2F7982F8981890F89838F8DCC
:101340008F5F8F8F8F8D8830D8F289810E948C01BA
:101350008D8D9E8D01979E8F8D8F8D8D9E8D992366
:1013600064F63AC088E090E099A388A330C019825F
:101370001AA222C08AA1882F90E028A139A1220FA9
:10138000331F220F331F220F331F820F931F8653E9
:10139000994FFC018081882F90E02AA1222F30E014
:1013A00002C0880F991F2A95E2F7982F8981890F2B
:1013B00089838AA18F5F8AA38AA18830D8F2898124
:1013C0000E948C0188A199A1019799A388A388A163
:1013D00099A1992364F600000000A3960FB6F89433
:1013E000DEBF0FBECDBFDF91CF910895CF93DF93C6
:1013F000CDB7DEB781E290E0FC01108284E290E09C
:10140000FC01808184E290E02FEFFC0120838AE2DE
:1014100090E0FC0180818AE290E02FEFFC012083C4
:101420008BE290E02BE230E0F90120812068FC01A2
:1014300020838CE790E02CE730E0F90120812064E4
:10144000FC0120838AE790E02AE730E0F90120815F
:101450002568FC01208309D0DC01CB01BC01CD0152
:1014600024D60000DF91CF910895CF93DF9300D071
:1014700000D0CDB7DEB719821A821B821C8280E0B1
:10148000D4D9CC01A0E0B0E029813A814B815C81C4
:10149000820F931FA41FB51F89839A83AB83BC83DC
:1014A00081E0C3D9CC01A0E0B0E029813A814B8131
:1014B0005C81820F931FA41FB51F89839A83AB831E
:1014C000BC8389819A81AB81BC81BC01CD010F9025
:1014D0000F900F900F90DF91CF910895CF93DF93EE
:1014E000CDB7DEB763970FB6F894DEBF0FBECDBFA2
:1014F0008A8B6B8B19828A89882329F583E090E097
:101500009B838A831BC08981880F89838B89882F5D
:1015100090E09C01220F331F220F331F8A819B8191
:10152000820F931F8654994FFC0180819981890F06
:1015300089838A819B8101979B838A838A819B818E
:1015400099230CF71AC18A89882341F18A89813F3E
:1015500028F583E090E09D838C831BC08981880FF0
:1015600089838B89882F90E09C01220F331F220FE3
:10157000331F8C819D81820F931F8C5B9E4FFC01DA
:1015800080819981890F89838C819D8101979D83B9
:101590008C838C819D8199230CF7EFC08A89813FD0
:1015A00029F583E090E09F838E831BC08981880F9B
:1015B00089838B89882F90E09C01220F331F220F93
:1015C000331F8E819F81820F931F8C599E4FFC0188
:1015D00080819981890F89838E819F8101979F8363
:1015E0008E838E819F8199230CF7C7C08A898A3F99
:1015F00029F583E090E0998788871BC08981880F4F
:1016000089838B89882F90E09C01220F331F220F42
:10161000331F88859985820F931F8C5D9E4FFC0137
:1016200080819981890F8983888599850197998718
:1016300088878885998599230CF79FC08A898D3F73
:1016400029F583E090E09B878A871BC08981880FFA
:1016500089838B89882F90E09C01220F331F220FF2
:10166000331F8A859B85820F931F8C5F9E4FFC01E1
:1016700080819981890F89838A859B8501979B87C2
:101680008A878A859B8599230CF777C08A898C3F46
:1016900029F583E090E09D878C871BC08981880FA6
:1016A00089838B89882F90E09C01220F331F220FA2
:1016B000331F8C859D85820F931F8C5C9E4FFC0190
:1016C00080819981890F89838C859D8501979D876C
:1016D0008C878C859D8599230CF74FC08A898B3F19
:1016E00029F583E090E09F878E871BC08981880F52
:1016F00089838B89882F90E09C01220F331F220F52
:10170000331F8E859F85820F931F8C5E9E4FFC0139
:1017100080819981890F89838E859F8501979F8715
:101720008E878E859F8599230CF727C08A89853FF0
:1017300021F583E090E0998B888B1BC08981880F0D
:1017400089838B89882F90E09C01220F331F220F01
:10175000331F88899989820F931F8C5A9E4FFC01F1
:1017600080819981890F8983888999890197998BCB
:10177000888B8889998999230CF7898163960FB69C
:10178000F894DEBF0FBECDBFDF91CF910895CF9308
:10179000DF9300D000D0CDB7DEB781E08093120791
:1017A0001A82198233C01C821B8227C089819A81C8
:1017B0009C0122953295307F3227207F32278B8102
:1017C0009C81820F931F8C589E4FFC014081898120
:1017D0009A819C0122953295307F3227207F3227D3
:1017E0008B819C81820F931F875E984FFC01408301
:1017F0008B819C8101969C838B838B819C814097FC
:10180000ACF289819A8101969A83898389819A8130
:1018100040974CF200000F900F900F900F90DF91C7
:10182000CF910895D9D008F481E008950CD00FC16C
:1018300007D140F0FED030F021F45F3F19F0F0C046
:10184000511139C1F3C014D198F39923C9F3552329
:10185000B1F3951B550BBB27AA27621773078407A3
:1018600038F09F5F5F4F220F331F441FAA1FA9F359
:1018700033D00E2E3AF0E0E830D091505040E6954B
:10188000001CCAF729D0FE2F27D0660F771F881FAC
:10189000BB1F261737074807AB07B0E809F0BB0B9B
:1018A000802DBF01FF2793585F4F2AF09E3F5105BF
:1018B00068F0B6C000C15F3FECF3983EDCF386955C
:1018C00077956795B795F7959F5FC9F7880F911D35
:1018D0009695879597F90895E1E0660F771F881F21
:1018E000BB1F621773078407BA0720F0621B730BD4
:1018F000840BBA0BEE1F88F7E095089504D0689426
:10190000B111D9C00895BCD088F09F5790F0B92F7D
:101910009927B751A0F0D1F0660F771F881F991F44
:101920001AF0BA95C9F712C0B13081F0C3D0B1E056
:101930000895C0C0672F782F8827B85F39F0B93F66
:10194000CCF3869577956795B395D9F73EF4909546
:101950008095709561957F4F8F4F9F4F0895E894C4
:1019600009C097FB3EF490958095709561957F4FE7
:101970008F4F9F4F9923A9F0F92F96E9BB27939595
:10198000F695879577956795B795F111F8CFFAF4A5
:10199000BB0F11F460FF1BC06F5F7F4F8F4F9F4FD6
:1019A00016C0882311F096E911C0772321F09EE834
:1019B000872F762F05C0662371F096E8862F70E09A
:1019C00060E02AF09A95660F771F881FDAF7880F74
:1019D0009695879597F90895990F0008550FAA0BCA
:1019E000E0E8FEEF16161706E807F907C0F0121632
:1019F0001306E407F50798F0621B730B840B950B35
:101A000039F40A2661F0232B242B252B21F4089589
:101A10000A2609F4A140A6958FEF811D811D089526
:101A200097F99F6780E870E060E008959FEF80EC91
:101A3000089500240A941616170618060906089534
:101A400000240A9412161306140605060895092E9A
:101A50000394000C11F4882352F0BB0F40F4BF2B09
:101A600011F460FF04C06F5F7F4F8F4F9F4F089549
:101A700057FD9058440F551F59F05F3F71F047953F
:101A8000880F97FB991F61F09F3F79F08795089524
:101A9000121613061406551FF2CF4695F1DF08C043
:101AA000161617061806991FF1CF86957105610560
:101AB00008940895E894BB2766277727CB0197F908
:101AC00008958ADF08F48FEF08950BD0C0CFB1DFFF
:101AD00028F0B6DF18F0952309F0A2CFA7CF112484
:101AE000EACFC6DFA0F3959FD1F3950F50E0551FC5
:101AF000629FF001729FBB27F00DB11D639FAA2763
:101B0000F00DB11DAA1F649F6627B00DA11D661FB1
:101B1000829F2227B00DA11D621F739FB00DA11DD2
:101B2000621F839FA00D611D221F749F3327A00D8C
:101B3000611D231F849F600D211D822F762F6A2F28
:101B400011249F5750408AF0E1F088234AF0EE0FAD
:101B5000FF1FBB1F661F771F881F91505040A9F7BA
:101B60009E3F510570F05CCFA6CF5F3FECF3983EEF
:101B7000DCF3869577956795B795F795E7959F5F21
:101B8000C1F7FE2B880F911D9695879597F90895BB
:101B9000FA01EE0FFF1F30962105310599F161150D
:101BA000710561F48038BFE39B0749F16894903870
:101BB000810561F08038BFEF9B0741F0992342F522
:101BC000FF3FE1053105210511F1E8940894E795FF
:101BD000D901AA2329F4AB2FBE2FF85FD0F310C090
:101BE000FF5F70F4A695E0F7F73950F019F0FF3A6F
:101BF00038F49F779F930CD00F9007FC905808956E
:101C00003EF014CF60E070E080E89FE308954FE776
:101C10009F775F934F933F932F939ED02F913F9148
:101C20004F915F9152DF05C019F40EF0F9CE42CF0B
:101C3000FDCE26DFC8F39638C0F707F80F92E89478
:101C40002BE33AEA48EB5FE74EDF0F920F920F92D9
:101C50004DB75EB70F92C0D0E0EAF0E016D04F91DA
:101C60005F91EF91FF91E595EE1FFF1F49F0FE5741
:101C7000E0684427EE0F441FFA95E1F74195550BB4
:101C800032D00F9007FE26C00895DF93CF931F93A5
:101C90000F93FF92EF92DF927B018C01689405C055
:101CA000DA2EEF011EDFFE01E894A5912591359112
:101CB00045915591AEF3EF01D4D0FE019701A801F3
:101CC000DA9479F7DF90EF90FF900F911F91CF9109
:101CD000DF9108959B01AC0160E070E080E89FE334
:101CE000A5CD9ECE11C1CCDEE8F39923D9F3940F94
:101CF000511DBBF39150504094F059F0882332F0BD
:101D0000660F771F881F91505040C1F79E3F5105C5
:101D100044F7880F911D9695879597F908955F3F31
:101D2000ACF0983E9CF0BB27869577956795B79564
:101D300008F4B1609395C1F7BB0F58F711F460FF39
:101D4000E8CF6F5F7F4F8F4F9F4FE3CFB4CE0EF042
:101D5000DBC06CCE689464CE93DEC8F39923D1F3D4
:101D6000C6F3DF93CF931F930F93FF92C92FDD2705
:101D700088232AF02197660F771F881FDAF720E063
:101D800030E040E85FEB9FE3883920F0803E30F0A0
:101D900021968F7755D0E8ECF0E003C051D0E5EF05
:101DA000F0E073DF8B01BE01EC01FB2E6F57710970
:101DB0007595771F880B990BD4DD28E132E741E355
:101DC0005FE38FDEAF2D9801AE01FF900F911F9161
:101DD000CF91DF9146D03BCEFA01DC01AA0FBB1FA9
:101DE0009B01AC01BF5728F42227332744275078A2
:101DF0001FC0B75188F4AB2F00244695379527951F
:101E0000011CA395D2F3002069F0220F331F441F59
:101E1000B395DAF30DD013C061307105A0E88A07DD
:101E2000B94630F49B01AC01662777278827907864
:101E3000309621F020833183428353830895505894
:101E4000BB27AA270ED003CEF4DD30F0F9DD20F059
:101E500031F49F3F11F41EF4E9CD0EF4E095E7FB59
:101E6000DFCDE92F05DE80F3BA1762077307840719
:101E7000950718F071F49EF51DCE0EF4E0950B2E2B
:101E8000BA2FA02D0B01B90190010C01CA01A001CC
:101E90001124FF27591B99F0593F50F4503E68F127
:101EA0001A16F040A22F232F342F4427585FF3CF68
:101EB000469537952795A795F0405395C9F77EF439
:101EC0001F16BA0B620B730B840BBAF09150A1F082
:101ED000FF0FBB1F661F771F881FC2F70EC0BA0F08
:101EE000621F731F841F48F4879577956795B79590
:101EF000F7959E3F08F0B3CF9395880F08F0992788
:101F0000EE0F9795879508959F3F31F0915020F4FB
:101F1000879577956795B795880F911D96958795C5
:101F200097F9089597FB072E16F4009406D077FDD5
:101F300008D014D007FC05D03EF4909581959F4FB2
:101F40000895709561957F4F0895EE0FFF1F00244F
:101F5000001C0BBE0790F691E02D0994AA1BBB1B39
:101F600051E107C0AA1FBB1FA617B70710F0A61B99
:101F7000B70B881F991F5A95A9F780959095BC01BA
:101F8000CD0108958F929F92AF92BF92CF92DF9230
:101F9000EF92FF92CF93DF93EC01688179818A8180
:101FA0009B81611571058105910521F464E279ED4C
:101FB0008BE597E02DE133EF41E050E07FD0490120
:101FC0005A019B01AC01A7EAB1E494D06B017C01FA
:101FD000ACEEB4EFA501940199D0DC01CB018C0DDE
:101FE0009D1DAE1DBF1DB7FF03C00197A109B048DD
:101FF00088839983AA83BB83BC01CD019F77DF913E
:10200000CF91FF90EF90DF90CF90BF90AF909F90D7
:102010008F9008958F929F92AF92BF92CF92DF924E
:10202000EF92FF9260910001709101018091020195
:1020300090910301611571058105910521F464E218
:1020400079ED8BE597E02DE133EF41E050E036D0BC
:1020500049015A019B01AC01A7EAB1E44BD06B01E5
:102060007C01ACEEB4EFA501940150D0DC01CB01B2
:102070008C0D9D1DAE1DBF1DB7FF03C00197A109AB
:10208000B0488093000190930101A0930201B093A6
:102090000301BC01CD019F77FF90EF90DF90CF90BF
:1020A000BF90AF909F908F900895609300017093C0
:1020B000010180930201909303010895052E97FB7F
:1020C00016F400940FD057FD05D024D007FC02D0A1
:1020D00046F408C050954095309521953F4F4F4F9D
:1020E0005F4F089590958095709561957F4F8F4FC4
:1020F0009F4F089531D0A59F900DB49F900DA49F40
:10210000800D911D11240895B7FFF4CFF3DF821BDA
:10211000930B0895A1E21A2EAA1BBB1BFD010DC053
:10212000AA1FBB1FEE1FFF1FA217B307E407F50787
:1021300020F0A21BB30BE40BF50B661F771F881F63
:10214000991F1A9469F760957095809590959B01F9
:10215000AC01BD01CF010895A29FB001B39FC001A2
:10216000A39F700D811D1124911DB29F700D811DC3
:0A2170001124911D0895F894FFCF8B
:10217A00010000000001010000010100010101014C
:10218A000101010101010101010101010001010037
:10219A000001010001010000010101010101010129
:1021AA000101000000000101010101010101010119
:1021BA000000010100010100010101010101010109
:1021CA0000010100010101010101010101010101F7
:1021DA0001010101000101000100000101000001EB
:1021EA0000010100000000F5F5F5F5F5000000001A
:1021FA000000F500000000F50000000000000000EB
:10220A0000F5000000000000000000000000F5F5E5
:10221A00F500000000000000F5F5F50000000000E0
:10222A0000F50000000000F5000000F500000000C5
:10223A000000F500000000F5000000F500000000B5
:10224A000000000000000000F5F5F500000000F5B0
:10225A00F5F5000000000000000000000000F50095
:10226A000000F500000000F500F5F5000000F5009B
:10227A000000F500000000F500F500F5000000F58B
:10228A00F5F5000000000000F50000F50000000070
:10229A00000000000000000000000000000000F53F
:1022AA00F5F5F500000000F5F5F5F5F50000F50087
:1022BA0000000000000000F500F500F50000F50040
:1022CA0000000000000000F5000000F5000000F525
:1022DA00F5F5F50000000000000000000000000015
:1022EA0000000000000000000101010101000001DE
:1022FA0001010101000001010101000001010101C8
:10230A0001000001010101010100000000000001BB
:10231A0001010101010001010101010100010101A5
:10232A000101010001010101010100010101010195
:10233A00010000000000000101000000000001018E
:10234A00010000000001010000010100010100007C
:10235A00010100010100000000000000000000016E
:10236A00010101000000010100000000000101005C
:10237A00000101000101000001010001010000004B
:10238A00000000000000000101010101010001013B
:10239A00000000000001010000010100010101012B
:1023AA00010100010101010100000000000000001C
:1023BA00000101010100010100000000000101000B
:1023CA0000010100010101010100000101010101F7
:1023DA0000000000000000000000000101000101EF
:1023EA0001000000000101000001010001010001DB
:1023FA0001000001010000000000000000000001CF
:10240A0001010101010001010101010100010101B4
:10241A0001010100010100010101000101010101A5
:10242A00010000000000000101010101000000019B
:10243A000101010100000101010100000101000088
:10244A000101000101010101010000000000010178
:10245A000101000000010101010101000001010068
:10246A00000101000001010000010100000101005A
:10247A00000101000001010000010100000101004A
:10248A000001010000010101010101000000010138
:10249A00010100000000000101000000000000012D
:1024AA00010000000000000101000000000000011E
:1024BA00010000000000000101000000000000010E
:1024CA0001000000000000010100000000000001FE
:1024DA0001000000000000010100000000000001EE
:1024EA0001000000000001010101000000000100DC
:1024FA0001010000000000000101000000000001CD
:10250A0001000000000000010000000000000101BD
:10251A0000000000000001010101000000000101AB
:10252A00010100000000010101000000000001019A
:10253A00010100000000000001010000000001018B
:10254A00010000000000010101000000000000007D
:10255A00010100000000000001010000000001016B
:10256A00010100000000010101000000000101005A
:10257A000101000000010100010100000001010049
:10258A000101000000010101010100000001010137
:10259A00010100000000000001010000000000002D
:1025AA00010100000000000001010000000000001D
:1025BA000101000000000001010101000000010109
:1025CA0001010100000001010000000000000101FA
:1025DA0000000000000001010101000000000001EC
:1025EA0001010000000000000001010000000101DB
:1025FA0001010100000001010101000000000101C8
:10260A0001010000000101010101000000010100B7
:10261A0000000000000101010101000000010101A8
:10262A000101010000010100000101000001010097
:10263A000001010000010101010101000000010186
:10264A000101000000000101010100000000010178
:10265A00010100000000000001010000000000006C
:10266A00010100000000000101000000000000015B
:10267A00010000000000010100000000000001014B
:10268A00000000000000010100000000000101013B
:10269A000101010000010101010101000001010025
:1026AA000001010000010100000101000001010117
:1026BA000101010000010101010101000001010005
:1026CA0000010100000101000001010000010101F7
:1026DA0001010100000001010101000000010101E6
:1026EA0001010100000101000001010000010100D7
:1026FA0000010100000101010101010000000101C6
:10270A0001010100000000000000010000000101B9
:10271A000101010000000101010101000105080396
:0A272A0000580258029600960000C5
:00000001FF
