:1000000045C0000060C000005EC000005CC0000091
:100010005AC0000058C0000056C0000054C0000084
:1000200052C0000050C000004EC000004CC0000094
:100030004AC0000048C0000046C0000044C00000A4
:1000400042C0000040C000003EC000003CC00000B4
:100050003AC0000038C0000036C0000034C00000C4
:1000600032C0000030C000002EC000002CC00000D4
:100070002AC0000028C0000026C0000024C00000E4
:1000800022C0000020C000001EC0000011241FBEBE
:10009000CFEFD0E4DEBFCDBF11E0A0E0B1E0ECEBEC
:1000A000F8E000E00BBF02C007900D92A037B10747
:1000B000D9F722E0A0E7B1E001C01D92A438B20751
:1000C000E1F7EFD2F9C39CCF589A08955898089554
:1000D000599A08955A9A08955B9A08955B980895DD
:1000E0005C9A08955C9808955D9A08955D980895C6
:1000F000FDDFFACF08958FE385B9F4DFEFDFEADFA4
:10010000F3DFE6DFE1DFF4CF0895E2DFDFCF08952C
:10011000CF93C82FE5DFE2DFC5B9EADFCF910895BD
:10012000CF93C82FDFDFDADFC86BC5B9E1DFCF912E
:100130000895CF93C82FD2DFD5DFC064C5B9D8DF0B
:10014000CF9108950F931F93CF93DF9300E010E0BA
:1001500011C0C801E5DFCE01ECDFC2DFBFDF15B89B
:10016000C7DF2196C034D105A1F70F5F1F4F0830BC
:10017000110519F0C0E0D0E0ECCFDF91CF911F91D5
:100180000F910895ADDFA8DF14B8B2CF08958FEFB7
:1001900084B9089580910D0190E020910C0130E028
:1001A00040910A01FC01E295F295F07FFE27E07F85
:1001B000FE27EE57FE4FE20FF31F4083FC01E2954E
:1001C000F295F07FFE27E07FFE27EE58FE4FE20F0C
:1001D000F31F5FEF540F508382959295907F98277D
:1001E000807F98278E599E4FFC01E20FF31F4250EB
:1001F00040830895E2E8F1E042E852E00AC08081DD
:100200008F5F8193E217F307D1F7F9014217530784
:1002100021F09F01205F3F4FF2CF80910A01909122
:100220000B01019690930B0180930A010895CF92E0
:10023000DF92EF92FF928FD26B017C018CD2AB01E7
:10024000BC014F70552766277078772364F44150BE
:10025000510961097109406F5F6F6F6F7F6F4F5F69
:100260005F4F6F4F7F4FD701C6018F709927AA2725
:10027000B078BB2354F40197A109B109806F9F6F37
:10028000AF6FBF6F0196A11DB11D82959295907FB2
:100290009827807F98278E579E4FFC01E40FF51F0B
:1002A00081EF8083FF90EF90DF90CF900895ECE78F
:1002B000F0E09081987F892B8083EAE7F0E08081ED
:1002C00080648083808186FDFDCF8091780090914D
:1002D000790008951F93CF93DF93162FE8DFEC0189
:1002E000812FE5DF609108017091090140910401BF
:1002F000509105019B01240F351F2C173D0714F465
:10030000109270012091060130910701F901E41B60
:10031000F50B8E179F071CF4E1E0E0937001641B5E
:10032000750BC617D7071CF462E060937001240FA9
:10033000351F281739071CF483E080937001DF9183
:10034000CF911F910895CF92DF92EF92FF920F937A
:100350001F93CF93DF9361E070E080E090E0BADF1D
:1003600080917001813061F028F0823079F0833023
:1003700099F018C081E080930E011092710117C0AE
:1003800010920E0181E08093710111C08FEF809374
:100390000E01109271010BC010920E018FEF80932D
:1003A000710105C081E080930E011092710190915E
:1003B0000D019093830280910C0180938202209121
:1003C0000E01920F90930D0190917101890F80930E
:1003D0000C0102E911E00F2EF2E9EF2EF2E0FF2E00
:1003E000F02D0F2EFAE0CF2EF1E0DF2EF02D3EC0E3
:1003F000E0910D0180910C0190E1E99FF001112441
:10040000EE57FE4FE80FF11D8081813F11F4F2DEBF
:100410000EDF88818150803F08F48883E091830259
:1004200080918202A0E1EA9FF0011124EE57FE4F75
:10043000E80FF11DD6018C918083E0910D01809130
:100440000C01B0E1EB9FF0011124EE57FE4FE80FD5
:10045000F11D80917001865080832196C017D107CD
:1004600039F6005F1F4F0E151F0519F0E801609760
:10047000BFCFDF91CF911F910F91FF90EF90DF9051
:10048000CF9008950F931F93CF93DF937BDE00E00F
:1004900010E0C80145DEC0E4D0E085B129DE219737
:1004A000E1F70F5F1F4F0830110599F770DEDF91FC
:1004B000CF911F910F91089511B884B18FEF84B936
:1004C0009AB18AB95F9AECE7F0E08081806480831A
:1004D000EAE7F0E0808187688083D4DF87C10895F0
:1004E000811111C070E0660F771F660F771FFB0147
:1004F000EA58FE4F6E587E4F880F9291890F6E1703
:100500007F07D1F708959FEF980F903F90F470E028
:10051000660F771F660F771FFB01ED5DFE4F615E73
:100520007E4F80E0880F9291890FE617F707D1F789
:100530000895813F91F470E0660F771F660F771F73
:10054000FB01ED5EFE4F615F7E4F80E0880F929170
:10055000890FE617F707D1F708958A3F99F4262FF8
:1005600030E0220F331F220F331FF901ED5BFE4FE6
:10057000215C3E4F80E0880F9291890FE217F307CC
:10058000D1F708958D3F99F4262F30E0220F331FC5
:10059000220F331FF901ED59FE4F215A3E4F80E0E3
:1005A000880F9291890FE217F307D1F708958C3FD6
:1005B00099F4262F30E0220F331F220F331FF90149
:1005C000ED5CFE4F215D3E4F80E0880F9291890FD8
:1005D000E217F307D1F708958B3F99F4262F30E007
:1005E000220F331F220F331FF901ED5AFE4F215BFB
:1005F0003E4F80E0880F9291890FE217F307D1F701
:10060000089580E00895AF92BF92CF92DF92EF926B
:10061000FF920F931F93CF93DF9377DD0F2EF2E9B5
:10062000CF2EF1E0DF2EF02DA12CB12CC50178DD0D
:1006300080E090E07EDD86010051110976011AC04C
:100640006C2FF80180814CDFD82F6C2FF70180814F
:1006500047DFF0E18F9FD00D11248D2F59DDCF5F43
:10066000C43071F70F5F1F4F8FEFE81AF80AC016FA
:10067000D10611F0C0E0E4CF9FEFA91AB90AE0E279
:10068000CE0ED11CF8E0AF16B10481F6DF91CF9108
:100690001F910F91FF90EF90DF90CF90BF90AF90A0
:1006A00008950ADF28DD4EDD30DD74DDC0DD4BDE70
:1006B000AADF2FEF86E791E0215080409040E1F7DC
:1006C00000C00000F4CF8F929F92AF92BF92CF9262
:1006D000DF92EF92FF92CF93DF93EC0168817981F3
:1006E0008A819B81611571058105910521F464E280
:1006F00079ED8BE597E02DE133EF41E050E07FD0DD
:1007000049015A019B01AC01A7EAB1E494D06B0105
:100710007C01ACEEB4EFA501940199D0DC01CB01D2
:100720008C0D9D1DAE1DBF1DB7FF03C00197A10914
:10073000B04888839983AA83BB83BC01CD019F778E
:10074000DF91CF91FF90EF90DF90CF90BF90AF906F
:100750009F908F9008958F929F92AF92BF92CF9269
:10076000DF92EF92FF926091000170910101809100
:10077000020190910301611571058105910521F434
:1007800064E279ED8BE597E02DE133EF41E050E055
:1007900036D049015A019B01AC01A7EAB1E44BD024
:1007A0006B017C01ACEEB4EFA501940150D0DC01EB
:1007B000CB018C0D9D1DAE1DBF1DB7FF03C0019762
:1007C000A109B0488093000190930101A093020118
:1007D000B0930301BC01CD019F77FF90EF90DF90B4
:1007E000CF90BF90AF909F908F900895609300013D
:1007F0007093010180930201909303010895052EE7
:1008000097FB16F400940FD057FD05D024D007FCB9
:1008100002D046F408C050954095309521953F4F41
:100820004F4F5F4F089590958095709561957F4FDC
:100830008F4F9F4F089531D0A59F900DB49F900D7D
:10084000A49F800D911D11240895B7FFF4CFF3DF0D
:10085000821B930B0895A1E21A2EAA1BBB1BFD015C
:100860000DC0AA1FBB1FEE1FFF1FA217B307E4078F
:10087000F50720F0A21BB30BE40BF50B661F771FE7
:10088000881F991F1A9469F76095709580959095C7
:100890009B01AC01BD01CF010895A29FB001B39FA0
:1008A000C001A39F700D811D1124911DB29F700D79
:0C08B000811D1124911D0895F894FFCFC4
:1008BC000100000096003E025702030008050100EB
:1008CC000101000100000101000001000101000014
:1008DC000101000101010101010101000101000000
:1008EC0000010101010101010101010000010101EF
:1008FC0001000001010101010101010101000001E0
:10090C0001010101010101000101000001010000D0
:10091C0001010000010100010101010101010100BF
:00000001FF
