:1000000045C0000060C000005EC000005CC0000091
:100010005AC0000058C0000056C0000054C0000084
:1000200052C0000050C000004EC000004CC0000094
:100030004AC0000048C0000046C0000044C00000A4
:1000400042C0000040C000003EC000003CC00000B4
:100050003AC0000038C0000036C0000034C00000C4
:1000600032C0000030C000002EC000002CC00000D4
:100070002AC0000028C0000026C0000024C00000E4
:1000800022C0000020C000001EC0000011241FBEBE
:10009000CFEFD0E4DEBFCDBF11E0A0E0B1E0E2EBF6
:1000A000F6E000E00BBF02C007900D92AA36B10740
:1000B000D9F722E0AAE6B1E001C01D92A238B2074A
:1000C000E1F724D2F4C29CCFFC010FB6F894609102
:1000D0007E0270917F0280918002909181020FBE1A
:1000E000309721F060837183828393830895589AB7
:1000F000089558980895599A08955A9A08955B98C2
:1001000008955C9A08955C9808955D9A08955D98A5
:100110000895FDDFFACF08958FE385B9F4DFEFDFAF
:10012000ECDFF3DFE8DFE3DFF4CF0895E4DFE1CFD6
:100130000895CF93C82FE5DFE2DFC5B9EADFCF919D
:100140000895CF93C82FDFDFDADFC86BC5B9E1DFD1
:10015000CF910895CF93C82FD2DFD5DFC064C5B942
:10016000D8DFCF9108950F931F93CF93DF9300E0D3
:1001700010E011C0C801E5DFCE01ECDFC2DFBFDF58
:1001800015B8C7DF2196C034D105A1F70F5F1F4F07
:100190000830110519F0C0E0D0E0ECCFDF91CF912D
:1001A0001F910F9108958091070190E02091060121
:1001B00030E040910401FC01E295F295F07FFE27CA
:1001C000E07FFE27E458FE4FE20FF31F4083FC015F
:1001D000E295F295F07FFE27E07FFE27E459FE4F7F
:1001E000E20FF31F5FEF540F508382959295907F3B
:1001F0009827807F9827845A9E4FFC01E20FF31FB7
:10020000425040830895CF93DF93E6D1EC01E4D1CF
:100210009E012F703078332334F421503109206F40
:100220003F6F2F5F3F4F8F709078992324F4019791
:10023000806F9F6F019622953295307F3227207F05
:10024000322724583E4FF901E80FF91F81EF8083D0
:10025000DF91CF910895CF93DF9380916A01813030
:1002600061F028F0823079F0833099F018C081E095
:100270008093080110926B0117C01092080181E071
:1002800080936B0111C08FEF8093080110926B0176
:100290000BC0109208018FEF80936B0105C081E0C5
:1002A0008093080110926B01C0910701C0937D02F9
:1002B0005091060150937C02A0910801AC0FA093CD
:1002C000070180916B01850F809306014091040125
:1002D00090916A0196502CE831E06CE872E0E0E120
:1002E000CE9FE0011124C458DE4FC50FD11D50E14F
:1002F000A59FD0011124A458BE4FA80FB11D10C056
:1003000080818150803F08F4808348839C9331969C
:10031000E217F307A9F7205F3F4F2617370719F0B9
:10032000F9017097EDCFDF91CF91089581B18FEFF3
:1003300081B994B184B99AB18AB95F9A61ED7FE9C4
:100340008CE090E0C1DE4BC10895811111C070E0D6
:10035000660F771F660F771FFB01E059FE4F645948
:100360007E4F880F9291890F6E177F07D1F70895FE
:100370009FEF980F903F90F470E0660F771F660F25
:10038000771FFB01E35EFE4F675E7E4F80E0880FC4
:100390009291890FE617F707D1F70895813F91F4FD
:1003A00070E0660F771F660F771FFB01E35FFE4F5C
:1003B000675F7E4F80E0880F9291890FE617F707FD
:1003C000D1F708958A3F99F4262F30E0220F331F8A
:1003D000220F331FF901E35CFE4F275C3E4F80E0A4
:1003E000880F9291890FE217F307D1F708958D3F97
:1003F00099F4262F30E0220F331F220F331FF9010B
:10040000E35AFE4F275A3E4F80E0880F9291890FA2
:10041000E217F307D1F708958C3F99F4262F30E0C7
:10042000220F331F220F331FF901E35DFE4F275DBB
:100430003E4F80E0880F9291890FE217F307D1F7C2
:1004400008958B3F99F4262F30E0220F331F220F9F
:10045000331FF901E35BFE4F275B3E4F80E0880FBF
:100460009291890FE217F307D1F7089580E008957C
:10047000AF92BF92CF92DF92EF92FF920F931F93B2
:10048000CF93DF9353DE0F2EFCE8CF2EF1E0DF2E6B
:10049000F02DA12CB12CC50154DE80E090E05ADE95
:1004A00086010051110976011AC06C2FF801808174
:1004B0004CDFD82F6C2FF701808147DFF0E18F9F51
:1004C000D00D11248D2F35DECF5FC43071F70F5F53
:1004D0001F4F8FEFE81AF80AC016D10611F0C0E0DE
:1004E000E4CF9FEFA91AB90AE0E2CE0ED11CF8E0E2
:1004F000AF16B10481F6DF91CF911F910F91FF905C
:10050000EF90DF90CF90BF90AF9008950FDF04DEA3
:100510002ADE0CDE48DE77DEC1E006C080916A018B
:100520008F5F837080936A0196DEA2DF2FEF86E7EC
:1005300091E0215080409040E1F700C00000CF5F83
:100540008C2F8370833081F7E9CF8F929F92AF9287
:10055000BF92CF92DF92EF92FF92CF93DF93EC01A5
:10056000688179818A819B81611571058105910579
:1005700021F464E279ED8BE597E02DE133EF41E082
:1005800050E038D049015A019B01AC01A7EAB1E41F
:100590004DD06B017C01ACEEB4EFA501940152D0BB
:1005A000DC01CB018C0D9D1DAE1DBF1DB7FF03C02F
:1005B0000197A109B04888839983AA83BB839F7759
:1005C000DF91CF91FF90EF90DF90CF90BF90AF90F1
:1005D0009F908F900895B9CF80E091E0B6CFA0E0D2
:1005E000B0E08093000190930101A0930201B093C9
:1005F00003010895052E97FB16F400940FD057FDC4
:1006000005D024D007FC02D046F408C05095409590
:10061000309521953F4F4F4F5F4F089590958095AE
:10062000709561957F4F8F4F9F4F089531D0A59F53
:10063000900DB49F900DA49F800D911D11240895DD
:10064000B7FFF4CFF3DF821B930B0895A1E21A2EBC
:10065000AA1BBB1BFD010DC0AA1FBB1FEE1FFF1F66
:10066000A217B307E407F50720F0A21BB30BE40BB6
:10067000F50B661F771F881F991F1A9469F76095FD
:100680007095809590959B01AC01BD01CF010895B7
:10069000A29FB001B39FC001A39F700D811D1124C3
:1006A000911DB29F700D811D1124911D0895F89424
:0206B000FFCF7A
:1006B2000100000003000805010001010001000023
:1006C200010100000100010100000101000101011E
:1006D200010101010100010100000001010101010C
:1006E20001010101010000010101010000010101FC
:1006F20001010101010101000001010101010101EA
:1007020001000101000001010000010100000101DE
:0A07120000010101010101010100D5
:00000001FF
