:1000000045C0000060C000005EC000005CC0000091
:100010005AC0000058C0000056C0000054C0000084
:1000200052C0000050C000004EC000004CC0000094
:100030004AC0000048C0000046C0000044C00000A4
:1000400042C0000040C000003EC000003CC00000B4
:100050003AC0000038C0000036C0000034C00000C4
:1000600032C0000030C000002EC000002CC00000D4
:100070002AC0000028C0000026C0000024C00000E4
:1000800022C0000020C000001EC0000011241FBEBE
:10009000CFEFD0E4DEBFCDBF12E0A0E0B1E0EAE7F1
:1000A000F9E000E00BBF02C007900D92A038B10745
:1000B000D9F723E0A0E8B2E001C01D92A539B2074C
:1000C000E1F748D358C49CCF589A0895589808959A
:1000D000599A0895599808955A9A08955B9A0895DF
:1000E0005B9808955C9A08955C9808955D9A0895C8
:1000F0005D980895FDDFFACF08958FE385B9F4DFA9
:10010000EFDFEADFF3DFE4DFDFDFF4CF0895E2DFE4
:10011000DBCF0895DDDFDACF0895CF93C82FE2DF7C
:10012000DFDFC5B9E7DFCF910895CF93C82FDCDFBC
:10013000D7DFC86BC5B9DEDFCF910895CF93C82F45
:10014000CFDFD2DFC064C5B9D5DFCF9108950F935B
:100150001F93CF93DF9300E010E011C0C801E5DFEB
:10016000CE01ECDFBFDFBCDF15B8C4DF2196C034A1
:10017000D105A1F70F5F1F4F0830110519F0C0E03E
:10018000D0E0ECCFDF91CF911F910F910895AADFBE
:10019000A5DF14B8AFCF08958FEF84B9089580918B
:1001A0000D0190E020910C0130E040910A01FC012A
:1001B000E295F295F07FFE27E07FFE27ED56FD4F9A
:1001C000E20FF31F4083FC01E295F295F07FFE27DA
:1001D000E07FFE27ED57FD4FE20FF31F5FEF540F57
:1001E000508382959295907F9827807F98278D588D
:1001F0009D4FFC01E20FF31F425040830895E3E955
:10020000F2E043E953E00AC080818F5F8193E217F7
:10021000F307D1F7F9014217530721F09F01205F3F
:100220003F4FF2CF80910A0190910B01019690937C
:100230000B0180930A010895CF92DF92EF92FF9213
:10024000E9D26B017C01E6D22FE0C222DD24EE244C
:1002500020E8F222FF2084F421E0C21AD108E1084C
:10026000F10820EFC22ADD24DA94ED2CFE2C2FEFCA
:10027000C21AD20AE20AF20AEC2DF0E0DC01CB014C
:100280008F709927AA27B078BB2354F40197A1094E
:10029000B109806F9F6FAF6FBF6F0196A11DB11D38
:1002A000E295F295F07FFE27E07FFE27ED56FD4FA9
:1002B000E80FF11D81EF8083FF90EF90DF90CF90EA
:1002C0000895ECE7F0E09081987F892B8083EAE73E
:1002D000F0E0808180648083808186FDFDCF809105
:1002E00078009091790008951F93CF93DF93162F94
:1002F000E8DFEC01812FE5DF6091080170910901D1
:1003000040910401509105019B01240F351F2C17CA
:100310003D071CF423E020938002209106013091D8
:100320000701F901E41BF50B8E179F0714F41092D7
:100330008002641B750BC617D7071CF461E060933D
:100340008002240F351F281739071CF482E08093A0
:100350008002DF91CF911F9108950F931F93CF9348
:10036000DF9315DF00E010E0C801DFDEC0E4D0E07D
:1003700085B1C0DE2197E1F70F5F1F4F08301105EF
:1003800099F70ADFDF91CF911F910F91089511B86E
:1003900084B18FEF84B99AB18AB95F9AECE7F0E043
:1003A000808180648083EAE7F0E0808180688083D8
:1003B000D4DF7BC20895811111C070E0660F771FF2
:1003C000660F771FFB01E957FD4F6D577D4F880F73
:1003D0009291890FE617F707D1F708959FEF980FCD
:1003E000903F90F470E0660F771F660F771FFB0158
:1003F000ED5CFD4F615D7D4F80E0880F9291890F2C
:10040000E617F707D1F70895813F91F470E0660F82
:10041000771F660F771FFB01ED5EFD4F615F7D4F1C
:1004200080E0880F9291890FE617F707D1F70895BA
:100430008A3F99F4262F30E0220F331F220F331FFB
:10044000F901ED5AFD4F215B3D4F80E0880F9291FD
:10045000890FE217F307D1F708958D3F99F4262FFE
:1004600030E0220F331F220F331FF901ED58FD4FEB
:1004700021593D4F80E0880F9291890FE217F307D1
:10048000D1F708958C3F99F4262F30E0220F331FC7
:10049000220F331FF901ED5BFD4F215C3D4F80E0E2
:1004A000880F9291890FE217F307D1F708958B3FD8
:1004B00099F4262F30E0220F331F220F331FF9014A
:1004C000ED59FD4F215A3D4F80E0880F9291890FE1
:1004D000E217F307D1F70895853F99F4262F30E00E
:1004E000220F331F220F331FF901ED5DFD4F215EF7
:1004F0003D4F80E0880F9291890FE217F307D1F703
:10050000089580E00895AF92BF92CF92DF92EF926C
:10051000FF920F931F93CF93DF93F9DD0F2EF3EA32
:10052000CF2EF2E0DF2EF02DA12CB12CC501FDDD88
:1005300080E090E003DE86010051110976011AC0C7
:100540006C2FF801808137DFD82F6C2FF701808165
:1005500032DFF0E18F9FD00D11248D2FDEDDCF5FD4
:10056000C43071F70F5F1F4F8FEFE81AF80AC016FB
:10057000D10611F0C0E0E4CF9FEFA91AB90AE0E27A
:10058000CE0ED11CF8E0AF16B10481F6DF91CF9109
:100590001F910F91FF90EF90DF90CF90BF90AF90A1
:1005A000089581E080938202EFE0F1E043E952E0B8
:1005B0006FE072E00BC081918D93E217F307D9F7DA
:1005C000405F5F4FF9016217730729F09F01205FB9
:1005D0003F4FDA01F0CF97DFFECFCF92DF92EF925D
:1005E000FF920F931F93CF93DF938091800281300E
:1005F00061F028F0823079F0833099F018C081E002
:1006000080930E011092810217C010920E0181E0BA
:100610008093810211C08FEF80930E0110928102AE
:100620000BC010920E018FEF8093810205C081E014
:1006300080930E011092810290910D01909394038A
:1006400080910C018093930320910E01920F90935F
:100650000D0190918102890F80930C0103EA12E051
:100660000F2EF3EAEF2EF3E0FF2EF02D0F2EFAE01F
:10067000CF2EF1E0DF2EF02D61C0E0910D018091D1
:100680000C0150E1E59FF0011124ED56FD4FE80FFC
:10069000F11D8081813F11F4B2DDCEDD60910D014D
:1006A000862F90E070910C01272F30E0FC01E2953D
:1006B000F295F07FFE27E07FFE27ED56FD4FE20F1B
:1006C000F31F4081442341F050E0E0910A01F09192
:1006D0000B01E417F50724F4613110F4713108F0CF
:1006E00060DF48814150403F08F44883E091940323
:1006F00040919303A0E1EA9FF0011124ED56FD4FD4
:10070000E40FF11DD6014C91408382959295907F24
:100710009827807F98278D569D4FFC01E20FF31F8D
:1007200020918002265020832196C017D10709F01E
:10073000A4CF005F1F4F0E151F0519F0E801609749
:100740009CCFDF91CF911F910F91FF90EF90DF90A1
:10075000CF9008951CDED1DCFADCDCDC20DD6CDD22
:10076000809182028111FECF61E070E080E090E034
:10077000BBDD33DF8FE19EE40197F1F700C000009D
:10078000C2DEEECF8F929F92AF92BF92CF92DF9256
:10079000EF92FF92CF93DF93EC01688179818A8198
:1007A0009B81611571058105910521F464E279ED64
:1007B0008BE597E02DE133EF41E050E07FD0490138
:1007C0005A019B01AC01A7EAB1E494D06B017C0112
:1007D000ACEEB4EFA501940199D0DC01CB018C0DF6
:1007E0009D1DAE1DBF1DB7FF03C00197A109B048F5
:1007F00088839983AA83BB83BC01CD019F77DF9156
:10080000CF91FF90EF90DF90CF90BF90AF909F90EF
:100810008F9008958F929F92AF92BF92CF92DF9266
:10082000EF92FF92609100017091010180910201AD
:1008300090910301611571058105910521F464E230
:1008400079ED8BE597E02DE133EF41E050E036D0D4
:1008500049015A019B01AC01A7EAB1E44BD06B01FD
:100860007C01ACEEB4EFA501940150D0DC01CB01CA
:100870008C0D9D1DAE1DBF1DB7FF03C00197A109C3
:10088000B0488093000190930101A0930201B093BE
:100890000301BC01CD019F77FF90EF90DF90CF90D7
:1008A000BF90AF909F908F900895609300017093D8
:1008B000010180930201909303010895052E97FB97
:1008C00016F400940FD057FD05D024D007FC02D0B9
:1008D00046F408C050954095309521953F4F4F4FB5
:1008E0005F4F089590958095709561957F4F8F4FDC
:1008F0009F4F089531D0A59F900DB49F900DA49F58
:10090000800D911D11240895B7FFF4CFF3DF821BF2
:10091000930B0895A1E21A2EAA1BBB1BFD010DC06B
:10092000AA1FBB1FEE1FFF1FA217B307E407F5079F
:1009300020F0A21BB30BE40BF50B661F771F881F7B
:10094000991F1A9469F760957095809590959B0111
:10095000AC01BD01CF010895A29FB001B39FC001BA
:10096000A39F700D811D1124911DB29F700D811DDB
:0A0970001124911D0895F894FFCFA3
:10097A000100000096003E0257020300080501002C
:10098A000000F5F5F5F5F5000000000000F500009F
:10099A000000F5000000000000000000F500000063
:1009AA00000000000000000000F5F5F5000000005E
:1009BA00000000F5F5F5000000000000F500000059
:1009CA000000F5000000F5000000000000F500003E
:1009DA000000F5000000F500000000000000000023
:1009EA00000000F5F5F500000000F5F5F50000003F
:1009FA00000000000000000000F5000000F5000003
:100A0A000000F500F5F5000000F5000000F5000013
:100A1A000000F500F500F5000000F5F5F50000000E
:100A2A00000000F50000F5000000000000000000D2
:100A3A0000000000000000000000F5F5F5F50000D8
:100A4A000000F5F5F5F5F50000F5000000000000DE
:100A5A000000F500F500F50000F5000000000000B8
:100A6A000000F5000000F5000000F5F5F5F50000BE
:100A7A00000000000000000000000000000000006C
:100A8A000101000100000101000001000101000153
:100A9A00010101010101010101010101010101003D
:100AAA000101000101010101010101000101000030
:100ABA00000101010101010101010100000101011F
:100ACA000100000101010101010101010100000110
:100ADA000101010101010100010100000101000001
:100AEA0001010000010100010101010101010100F0
:00000001FF
